{
  "contractName": "ERC721SimplePlacements",
  "abi": [
    {
      "inputs": [
        {
          "internalType": "contract IERC721",
          "name": "_token",
          "type": "address"
        }
      ],
      "payable": false,
      "stateMutability": "nonpayable",
      "type": "constructor"
    },
    {
      "anonymous": false,
      "inputs": [
        {
          "indexed": true,
          "internalType": "address",
          "name": "previousOwner",
          "type": "address"
        },
        {
          "indexed": true,
          "internalType": "address",
          "name": "newOwner",
          "type": "address"
        }
      ],
      "name": "OwnershipTransferred",
      "type": "event"
    },
    {
      "anonymous": false,
      "inputs": [
        {
          "indexed": true,
          "internalType": "address",
          "name": "paymentToken",
          "type": "address"
        },
        {
          "indexed": false,
          "internalType": "bool",
          "name": "isERC20",
          "type": "bool"
        },
        {
          "indexed": false,
          "internalType": "bool",
          "name": "isERC677",
          "type": "bool"
        },
        {
          "indexed": false,
          "internalType": "bool",
          "name": "isERC777",
          "type": "bool"
        }
      ],
      "name": "PaymentTokenWhitelistChanged",
      "type": "event"
    },
    {
      "anonymous": false,
      "inputs": [
        {
          "indexed": true,
          "internalType": "uint256",
          "name": "tokenId",
          "type": "uint256"
        },
        {
          "indexed": true,
          "internalType": "address",
          "name": "paymentToken",
          "type": "address"
        },
        {
          "indexed": false,
          "internalType": "uint256",
          "name": "cost",
          "type": "uint256"
        }
      ],
      "name": "UpdatePlacement",
      "type": "event"
    },
    {
      "constant": true,
      "inputs": [],
      "name": "isGasPaymentAllowed",
      "outputs": [
        {
          "internalType": "bool",
          "name": "",
          "type": "bool"
        }
      ],
      "payable": false,
      "stateMutability": "view",
      "type": "function"
    },
    {
      "constant": true,
      "inputs": [],
      "name": "isOwner",
      "outputs": [
        {
          "internalType": "bool",
          "name": "",
          "type": "bool"
        }
      ],
      "payable": false,
      "stateMutability": "view",
      "type": "function"
    },
    {
      "constant": true,
      "inputs": [],
      "name": "owner",
      "outputs": [
        {
          "internalType": "address",
          "name": "",
          "type": "address"
        }
      ],
      "payable": false,
      "stateMutability": "view",
      "type": "function"
    },
    {
      "constant": false,
      "inputs": [],
      "name": "renounceOwnership",
      "outputs": [],
      "payable": false,
      "stateMutability": "nonpayable",
      "type": "function"
    },
    {
      "constant": false,
      "inputs": [
        {
          "internalType": "address",
          "name": "newOwner",
          "type": "address"
        }
      ],
      "name": "transferOwnership",
      "outputs": [],
      "payable": false,
      "stateMutability": "nonpayable",
      "type": "function"
    },
    {
      "constant": false,
      "inputs": [
        {
          "internalType": "address",
          "name": "paymentToken",
          "type": "address"
        },
        {
          "internalType": "bool",
          "name": "isERC20",
          "type": "bool"
        },
        {
          "internalType": "bool",
          "name": "isERC677",
          "type": "bool"
        },
        {
          "internalType": "bool",
          "name": "isERC777",
          "type": "bool"
        }
      ],
      "name": "setWhitelistedPaymentToken",
      "outputs": [],
      "payable": false,
      "stateMutability": "nonpayable",
      "type": "function"
    },
    {
      "constant": true,
      "inputs": [
        {
          "internalType": "address",
          "name": "paymentToken",
          "type": "address"
        }
      ],
      "name": "whitelistedPaymentToken",
      "outputs": [
        {
          "internalType": "bool",
          "name": "",
          "type": "bool"
        },
        {
          "internalType": "bool",
          "name": "",
          "type": "bool"
        },
        {
          "internalType": "bool",
          "name": "",
          "type": "bool"
        }
      ],
      "payable": false,
      "stateMutability": "view",
      "type": "function"
    },
    {
      "constant": false,
      "inputs": [
        {
          "internalType": "bool",
          "name": "allowance",
          "type": "bool"
        }
      ],
      "name": "allowGasPayments",
      "outputs": [],
      "payable": false,
      "stateMutability": "nonpayable",
      "type": "function"
    },
    {
      "constant": false,
      "inputs": [
        {
          "internalType": "uint256",
          "name": "tokenId",
          "type": "uint256"
        },
        {
          "internalType": "address",
          "name": "paymentToken",
          "type": "address"
        },
        {
          "internalType": "uint256",
          "name": "cost",
          "type": "uint256"
        }
      ],
      "name": "place",
      "outputs": [],
      "payable": false,
      "stateMutability": "nonpayable",
      "type": "function"
    },
    {
      "constant": true,
      "inputs": [
        {
          "internalType": "uint256",
          "name": "tokenId",
          "type": "uint256"
        }
      ],
      "name": "placement",
      "outputs": [
        {
          "internalType": "address",
          "name": "",
          "type": "address"
        },
        {
          "internalType": "uint256",
          "name": "",
          "type": "uint256"
        }
      ],
      "payable": false,
      "stateMutability": "view",
      "type": "function"
    },
    {
      "constant": false,
      "inputs": [
        {
          "internalType": "uint256",
          "name": "tokenId",
          "type": "uint256"
        }
      ],
      "name": "unplace",
      "outputs": [],
      "payable": false,
      "stateMutability": "nonpayable",
      "type": "function"
    },
    {
      "constant": false,
      "inputs": [
        {
          "internalType": "uint256",
          "name": "tokenId",
          "type": "uint256"
        }
      ],
      "name": "buy",
      "outputs": [],
      "payable": true,
      "stateMutability": "payable",
      "type": "function"
    },
    {
      "constant": false,
      "inputs": [
        {
          "internalType": "address",
          "name": "from",
          "type": "address"
        },
        {
          "internalType": "uint256",
          "name": "",
          "type": "uint256"
        },
        {
          "internalType": "bytes",
          "name": "data",
          "type": "bytes"
        }
      ],
      "name": "tokenFallback",
      "outputs": [
        {
          "internalType": "bool",
          "name": "",
          "type": "bool"
        }
      ],
      "payable": false,
      "stateMutability": "nonpayable",
      "type": "function"
    },
    {
      "constant": false,
      "inputs": [
        {
          "internalType": "address",
          "name": "",
          "type": "address"
        },
        {
          "internalType": "address",
          "name": "from",
          "type": "address"
        },
        {
          "internalType": "address",
          "name": "",
          "type": "address"
        },
        {
          "internalType": "uint256",
          "name": "",
          "type": "uint256"
        },
        {
          "internalType": "bytes",
          "name": "userData",
          "type": "bytes"
        },
        {
          "internalType": "bytes",
          "name": "",
          "type": "bytes"
        }
      ],
      "name": "tokensReceived",
      "outputs": [],
      "payable": false,
      "stateMutability": "nonpayable",
      "type": "function"
    }
  ],
  "bytecode": "0x60806040523480156200001157600080fd5b506040516200292738038062002927833981810160405260208110156200003757600080fd5b810190808051906020019092919050505060006200005a6200049a60201b60201c565b9050806000806101000a81548173ffffffffffffffffffffffffffffffffffffffff021916908373ffffffffffffffffffffffffffffffffffffffff1602179055508073ffffffffffffffffffffffffffffffffffffffff16600073ffffffffffffffffffffffffffffffffffffffff167f8be0079c531659141344cd1fd0a4f28419497f9722a3daafe3b4186f6b6457e060405160405180910390a35080600160006101000a81548173ffffffffffffffffffffffffffffffffffffffff021916908373ffffffffffffffffffffffffffffffffffffffff160217905550731820a4b7618bde71dce8cdc73aab6c95905fad2473ffffffffffffffffffffffffffffffffffffffff166329965a1d3060405180807f455243373737546f6b656e000000000000000000000000000000000000000000815250600b0190506040518091039020306040518463ffffffff1660e01b8152600401808473ffffffffffffffffffffffffffffffffffffffff1673ffffffffffffffffffffffffffffffffffffffff1681526020018381526020018273ffffffffffffffffffffffffffffffffffffffff1673ffffffffffffffffffffffffffffffffffffffff1681526020019350505050600060405180830381600087803b1580156200023e57600080fd5b505af115801562000253573d6000803e3d6000fd5b50505050731820a4b7618bde71dce8cdc73aab6c95905fad2473ffffffffffffffffffffffffffffffffffffffff166329965a1d3060405180807f4552433230546f6b656e00000000000000000000000000000000000000000000815250600a0190506040518091039020306040518463ffffffff1660e01b8152600401808473ffffffffffffffffffffffffffffffffffffffff1673ffffffffffffffffffffffffffffffffffffffff1681526020018381526020018273ffffffffffffffffffffffffffffffffffffffff1673ffffffffffffffffffffffffffffffffffffffff1681526020019350505050600060405180830381600087803b1580156200035c57600080fd5b505af115801562000371573d6000803e3d6000fd5b50505050731820a4b7618bde71dce8cdc73aab6c95905fad2473ffffffffffffffffffffffffffffffffffffffff166329965a1d3060405180807f455243373737546f6b656e73526563697069656e74000000000000000000000081525060150190506040518091039020306040518463ffffffff1660e01b8152600401808473ffffffffffffffffffffffffffffffffffffffff1673ffffffffffffffffffffffffffffffffffffffff1681526020018381526020018273ffffffffffffffffffffffffffffffffffffffff1673ffffffffffffffffffffffffffffffffffffffff1681526020019350505050600060405180830381600087803b1580156200047a57600080fd5b505af11580156200048f573d6000803e3d6000fd5b5050505050620004a2565b600033905090565b61247580620004b26000396000f3fe6080604052600436106100dc5760003560e01c8063715018a61161007f5780638f32d59b116100595780638f32d59b14610516578063c0ee0b8a14610545578063d96a094a1461060d578063f2fde38b1461063b576100dc565b8063715018a6146104295780637ce77450146104405780638da5cb5b146104bf576100dc565b80634448aab9116100bb5780634448aab9146102925780634974e662146102cd578063612127691461033257806367492d90146103b4576100dc565b806223de29146100e15780632e0e663514610226578063394aa5dd14610263575b600080fd5b3480156100ed57600080fd5b50610224600480360360c081101561010457600080fd5b81019080803573ffffffffffffffffffffffffffffffffffffffff169060200190929190803573ffffffffffffffffffffffffffffffffffffffff169060200190929190803573ffffffffffffffffffffffffffffffffffffffff169060200190929190803590602001909291908035906020019064010000000081111561018b57600080fd5b82018360208201111561019d57600080fd5b803590602001918460018302840111640100000000831117156101bf57600080fd5b9091929391929390803590602001906401000000008111156101e057600080fd5b8201836020820111156101f257600080fd5b8035906020019184600183028401116401000000008311171561021457600080fd5b909192939192939050505061068c565b005b34801561023257600080fd5b506102616004803603602081101561024957600080fd5b81019080803515159060200190929190505050610a50565b005b34801561026f57600080fd5b50610278610ae7565b604051808215151515815260200191505060405180910390f35b34801561029e57600080fd5b506102cb600480360360208110156102b557600080fd5b8101908080359060200190929190505050610afa565b005b3480156102d957600080fd5b50610330600480360360608110156102f057600080fd5b8101908080359060200190929190803573ffffffffffffffffffffffffffffffffffffffff16906020019092919080359060200190929190505050610c58565b005b34801561033e57600080fd5b5061036b6004803603602081101561035557600080fd5b81019080803590602001909291905050506111e1565b604051808373ffffffffffffffffffffffffffffffffffffffff1673ffffffffffffffffffffffffffffffffffffffff1681526020018281526020019250505060405180910390f35b3480156103c057600080fd5b50610427600480360360808110156103d757600080fd5b81019080803573ffffffffffffffffffffffffffffffffffffffff16906020019092919080351515906020019092919080351515906020019092919080351515906020019092919050505061120b565b005b34801561043557600080fd5b5061043e6113fa565b005b34801561044c57600080fd5b5061048f6004803603602081101561046357600080fd5b81019080803573ffffffffffffffffffffffffffffffffffffffff169060200190929190505050611533565b60405180841515151581526020018315151515815260200182151515158152602001935050505060405180910390f35b3480156104cb57600080fd5b506104d461162c565b604051808273ffffffffffffffffffffffffffffffffffffffff1673ffffffffffffffffffffffffffffffffffffffff16815260200191505060405180910390f35b34801561052257600080fd5b5061052b611655565b604051808215151515815260200191505060405180910390f35b34801561055157600080fd5b506105f36004803603606081101561056857600080fd5b81019080803573ffffffffffffffffffffffffffffffffffffffff16906020019092919080359060200190929190803590602001906401000000008111156105af57600080fd5b8201836020820111156105c157600080fd5b803590602001918460018302840111640100000000831117156105e357600080fd5b90919293919293905050506116b3565b604051808215151515815260200191505060405180910390f35b6106396004803603602081101561062357600080fd5b8101908080359060200190929190505050611a8f565b005b34801561064757600080fd5b5061068a6004803603602081101561065e57600080fd5b81019080803573ffffffffffffffffffffffffffffffffffffffff169060200190929190505050611f2b565b005b60006106e6600086868080601f016020809104026020016040519081016040528093929190818152602001838380828437600081840152601f19601f82011690508083019250505050505050611fb190919063ffffffff16565b90506106f06123ea565b6106f982611fd9565b905060046000826000015173ffffffffffffffffffffffffffffffffffffffff1673ffffffffffffffffffffffffffffffffffffffff16815260200190815260200160002060009054906101000a900460ff166107be576040517f08c379a00000000000000000000000000000000000000000000000000000000081526004018080602001828103825260168152602001807f57726f6e67207075726368617365206d6574686f642e0000000000000000000081525060200191505060405180910390fd5b806000015173ffffffffffffffffffffffffffffffffffffffff163373ffffffffffffffffffffffffffffffffffffffff1614610863576040517f08c379a00000000000000000000000000000000000000000000000000000000081526004018080602001828103825260188152602001807f4f6e6c792066726f6d207061796d656e7420746f6b656e2e000000000000000081525060200191505060405180910390fd5b6000600160009054906101000a900473ffffffffffffffffffffffffffffffffffffffff1673ffffffffffffffffffffffffffffffffffffffff16636352211e846040518263ffffffff1660e01b81526004018082815260200191505060206040518083038186803b1580156108d857600080fd5b505afa1580156108ec573d6000803e3d6000fd5b505050506040513d602081101561090257600080fd5b81019080805190602001909291905050509050816000015173ffffffffffffffffffffffffffffffffffffffff16639bd9bbc6828460200151604051806020016040528060008152506040518463ffffffff1660e01b8152600401808473ffffffffffffffffffffffffffffffffffffffff1673ffffffffffffffffffffffffffffffffffffffff16815260200183815260200180602001828103825283818151815260200191508051906020019080838360005b838110156109d25780820151818401526020810190506109b7565b50505050905090810190601f1680156109ff5780820380516001836020036101000a031916815260200191505b50945050505050600060405180830381600087803b158015610a2057600080fd5b505af1158015610a34573d6000803e3d6000fd5b50505050610a43818b856120e0565b5050505050505050505050565b610a58611655565b610aca576040517f08c379a00000000000000000000000000000000000000000000000000000000081526004018080602001828103825260208152602001807f4f776e61626c653a2063616c6c6572206973206e6f7420746865206f776e657281525060200191505060405180910390fd5b80600560006101000a81548160ff02191690831515021790555050565b600560009054906101000a900460ff1681565b3073ffffffffffffffffffffffffffffffffffffffff16600160009054906101000a900473ffffffffffffffffffffffffffffffffffffffff1673ffffffffffffffffffffffffffffffffffffffff1663081812fc836040518263ffffffff1660e01b81526004018082815260200191505060206040518083038186803b158015610b8457600080fd5b505afa158015610b98573d6000803e3d6000fd5b505050506040513d6020811015610bae57600080fd5b810190808051906020019092919050505073ffffffffffffffffffffffffffffffffffffffff161415610c49576040517f08c379a00000000000000000000000000000000000000000000000000000000081526004018080602001828103825260158152602001807f417070726f76656420746f207472616e736665722e000000000000000000000081525060200191505060405180910390fd5b610c55816000806121e6565b50565b81600073ffffffffffffffffffffffffffffffffffffffff168173ffffffffffffffffffffffffffffffffffffffff161415610ca357600560009054906101000a900460ff16610d99565b600260008273ffffffffffffffffffffffffffffffffffffffff1673ffffffffffffffffffffffffffffffffffffffff16815260200190815260200160002060009054906101000a900460ff1680610d445750600360008273ffffffffffffffffffffffffffffffffffffffff1673ffffffffffffffffffffffffffffffffffffffff16815260200190815260200160002060009054906101000a900460ff165b80610d985750600460008273ffffffffffffffffffffffffffffffffffffffff1673ffffffffffffffffffffffffffffffffffffffff16815260200190815260200160002060009054906101000a900460ff165b5b610e0b576040517f08c379a000000000000000000000000000000000000000000000000000000000815260040180806020018281038252601a8152602001807f5061796d656e7420746f6b656e206e6f7420616c6c6f7765642e00000000000081525060200191505060405180910390fd5b3073ffffffffffffffffffffffffffffffffffffffff16600160009054906101000a900473ffffffffffffffffffffffffffffffffffffffff1673ffffffffffffffffffffffffffffffffffffffff1663081812fc866040518263ffffffff1660e01b81526004018082815260200191505060206040518083038186803b158015610e9557600080fd5b505afa158015610ea9573d6000803e3d6000fd5b505050506040513d6020811015610ebf57600080fd5b810190808051906020019092919050505073ffffffffffffffffffffffffffffffffffffffff1614610f59576040517f08c379a00000000000000000000000000000000000000000000000000000000081526004018080602001828103825260198152602001807f4e6f7420617070726f76656420746f207472616e736665722e0000000000000081525060200191505060405180910390fd5b6000600160009054906101000a900473ffffffffffffffffffffffffffffffffffffffff1673ffffffffffffffffffffffffffffffffffffffff16636352211e866040518263ffffffff1660e01b81526004018082815260200191505060206040518083038186803b158015610fce57600080fd5b505afa158015610fe2573d6000803e3d6000fd5b505050506040513d6020811015610ff857600080fd5b8101908080519060200190929190505050905061101361229e565b73ffffffffffffffffffffffffffffffffffffffff168173ffffffffffffffffffffffffffffffffffffffff16148061115d5750600160009054906101000a900473ffffffffffffffffffffffffffffffffffffffff1673ffffffffffffffffffffffffffffffffffffffff1663e985e9c58261108e61229e565b6040518363ffffffff1660e01b8152600401808373ffffffffffffffffffffffffffffffffffffffff1673ffffffffffffffffffffffffffffffffffffffff1681526020018273ffffffffffffffffffffffffffffffffffffffff1673ffffffffffffffffffffffffffffffffffffffff1681526020019250505060206040518083038186803b15801561112157600080fd5b505afa158015611135573d6000803e3d6000fd5b505050506040513d602081101561114b57600080fd5b81019080805190602001909291905050505b6111cf576040517f08c379a00000000000000000000000000000000000000000000000000000000081526004018080602001828103825260168152602001807f4e6f7420617070726f766564206f72206f776e65722e0000000000000000000081525060200191505060405180910390fd5b6111da8585856121e6565b5050505050565b6000806111ec6123ea565b6111f584611fd9565b9050806000015181602001519250925050915091565b611213611655565b611285576040517f08c379a00000000000000000000000000000000000000000000000000000000081526004018080602001828103825260208152602001807f4f776e61626c653a2063616c6c6572206973206e6f7420746865206f776e657281525060200191505060405180910390fd5b82600260008673ffffffffffffffffffffffffffffffffffffffff1673ffffffffffffffffffffffffffffffffffffffff16815260200190815260200160002060006101000a81548160ff02191690831515021790555081600360008673ffffffffffffffffffffffffffffffffffffffff1673ffffffffffffffffffffffffffffffffffffffff16815260200190815260200160002060006101000a81548160ff02191690831515021790555080600460008673ffffffffffffffffffffffffffffffffffffffff1673ffffffffffffffffffffffffffffffffffffffff16815260200190815260200160002060006101000a81548160ff0219169083151502179055508373ffffffffffffffffffffffffffffffffffffffff167fc5a59b2f3b743855a34b8d606a5cf52f247f26abee84be6ea13040513664649f84848460405180841515151581526020018315151515815260200182151515158152602001935050505060405180910390a250505050565b611402611655565b611474576040517f08c379a00000000000000000000000000000000000000000000000000000000081526004018080602001828103825260208152602001807f4f776e61626c653a2063616c6c6572206973206e6f7420746865206f776e657281525060200191505060405180910390fd5b600073ffffffffffffffffffffffffffffffffffffffff166000809054906101000a900473ffffffffffffffffffffffffffffffffffffffff1673ffffffffffffffffffffffffffffffffffffffff167f8be0079c531659141344cd1fd0a4f28419497f9722a3daafe3b4186f6b6457e060405160405180910390a360008060006101000a81548173ffffffffffffffffffffffffffffffffffffffff021916908373ffffffffffffffffffffffffffffffffffffffff160217905550565b6000806000600260008573ffffffffffffffffffffffffffffffffffffffff1673ffffffffffffffffffffffffffffffffffffffff16815260200190815260200160002060009054906101000a900460ff16600360008673ffffffffffffffffffffffffffffffffffffffff1673ffffffffffffffffffffffffffffffffffffffff16815260200190815260200160002060009054906101000a900460ff16600460008773ffffffffffffffffffffffffffffffffffffffff1673ffffffffffffffffffffffffffffffffffffffff16815260200190815260200160002060009054906101000a900460ff169250925092509193909250565b60008060009054906101000a900473ffffffffffffffffffffffffffffffffffffffff16905090565b60008060009054906101000a900473ffffffffffffffffffffffffffffffffffffffff1673ffffffffffffffffffffffffffffffffffffffff1661169761229e565b73ffffffffffffffffffffffffffffffffffffffff1614905090565b60008061170e600085858080601f016020809104026020016040519081016040528093929190818152602001838380828437600081840152601f19601f82011690508083019250505050505050611fb190919063ffffffff16565b90506117186123ea565b61172182611fd9565b905060036000826000015173ffffffffffffffffffffffffffffffffffffffff1673ffffffffffffffffffffffffffffffffffffffff16815260200190815260200160002060009054906101000a900460ff166117e6576040517f08c379a00000000000000000000000000000000000000000000000000000000081526004018080602001828103825260168152602001807f57726f6e67207075726368617365206d6574686f642e0000000000000000000081525060200191505060405180910390fd5b806000015173ffffffffffffffffffffffffffffffffffffffff163373ffffffffffffffffffffffffffffffffffffffff161461188b576040517f08c379a00000000000000000000000000000000000000000000000000000000081526004018080602001828103825260188152602001807f4f6e6c792066726f6d207061796d656e7420746f6b656e2e000000000000000081525060200191505060405180910390fd5b6000600160009054906101000a900473ffffffffffffffffffffffffffffffffffffffff1673ffffffffffffffffffffffffffffffffffffffff16636352211e846040518263ffffffff1660e01b81526004018082815260200191505060206040518083038186803b15801561190057600080fd5b505afa158015611914573d6000803e3d6000fd5b505050506040513d602081101561192a57600080fd5b81019080805190602001909291905050509050816000015173ffffffffffffffffffffffffffffffffffffffff1663a9059cbb8284602001516040518363ffffffff1660e01b8152600401808373ffffffffffffffffffffffffffffffffffffffff1673ffffffffffffffffffffffffffffffffffffffff16815260200182815260200192505050602060405180830381600087803b1580156119cc57600080fd5b505af11580156119e0573d6000803e3d6000fd5b505050506040513d60208110156119f657600080fd5b8101908080519060200190929190505050611a79576040517f08c379a000000000000000000000000000000000000000000000000000000000815260040180806020018281038252601d8152602001807f5061796d656e7420746f6b656e207472616e73666572206572726f722e00000081525060200191505060405180910390fd5b611a848189856120e0565b505050949350505050565b611a976123ea565b611aa082611fd9565b90506000600160009054906101000a900473ffffffffffffffffffffffffffffffffffffffff1673ffffffffffffffffffffffffffffffffffffffff16636352211e846040518263ffffffff1660e01b81526004018082815260200191505060206040518083038186803b158015611b1757600080fd5b505afa158015611b2b573d6000803e3d6000fd5b505050506040513d6020811015611b4157600080fd5b81019080805190602001909291905050509050600073ffffffffffffffffffffffffffffffffffffffff16826000015173ffffffffffffffffffffffffffffffffffffffff161415611cd957600560009054906101000a900460ff16611c0f576040517f08c379a00000000000000000000000000000000000000000000000000000000081526004018080602001828103825260168152602001807f57726f6e67207075726368617365206d6574686f642e0000000000000000000081525060200191505060405180910390fd5b8160200151341015611c89576040517f08c379a000000000000000000000000000000000000000000000000000000000815260040180806020018281038252601e8152602001807f5472616e7366657220616d6f756e74206973206e6f7420656e6f7567682e000081525060200191505060405180910390fd5b8073ffffffffffffffffffffffffffffffffffffffff166108fc83602001519081150290604051600060405180830381858888f19350505050158015611cd3573d6000803e3d6000fd5b50611f14565b60026000836000015173ffffffffffffffffffffffffffffffffffffffff1673ffffffffffffffffffffffffffffffffffffffff16815260200190815260200160002060009054906101000a900460ff16611d9c576040517f08c379a00000000000000000000000000000000000000000000000000000000081526004018080602001828103825260168152602001807f57726f6e67207075726368617365206d6574686f642e0000000000000000000081525060200191505060405180910390fd5b816000015173ffffffffffffffffffffffffffffffffffffffff166323b872dd611dc461229e565b8385602001516040518463ffffffff1660e01b8152600401808473ffffffffffffffffffffffffffffffffffffffff1673ffffffffffffffffffffffffffffffffffffffff1681526020018373ffffffffffffffffffffffffffffffffffffffff1673ffffffffffffffffffffffffffffffffffffffff1681526020018281526020019350505050602060405180830381600087803b158015611e6657600080fd5b505af1158015611e7a573d6000803e3d6000fd5b505050506040513d6020811015611e9057600080fd5b8101908080519060200190929190505050611f13576040517f08c379a000000000000000000000000000000000000000000000000000000000815260040180806020018281038252601d8152602001807f5061796d656e7420746f6b656e207472616e73666572206572726f722e00000081525060200191505060405180910390fd5b5b611f2681611f2061229e565b856120e0565b505050565b611f33611655565b611fa5576040517f08c379a00000000000000000000000000000000000000000000000000000000081526004018080602001828103825260208152602001807f4f776e61626c653a2063616c6c6572206973206e6f7420746865206f776e657281525060200191505060405180910390fd5b611fae816122a6565b50565b60006020820183511015611fc457600080fd5b60008260208501015190508091505092915050565b611fe16123ea565b600660008381526020019081526020016000206040518060400160405290816000820160009054906101000a900473ffffffffffffffffffffffffffffffffffffffff1673ffffffffffffffffffffffffffffffffffffffff1673ffffffffffffffffffffffffffffffffffffffff168152602001600182015481525050905060008160200151116120db576040517f08c379a00000000000000000000000000000000000000000000000000000000081526004018080602001828103825260118152602001807f546f6b656e206e6f7420706c616365642e00000000000000000000000000000081525060200191505060405180910390fd5b919050565b600160009054906101000a900473ffffffffffffffffffffffffffffffffffffffff1673ffffffffffffffffffffffffffffffffffffffff166323b872dd8484846040518463ffffffff1660e01b8152600401808473ffffffffffffffffffffffffffffffffffffffff1673ffffffffffffffffffffffffffffffffffffffff1681526020018373ffffffffffffffffffffffffffffffffffffffff1673ffffffffffffffffffffffffffffffffffffffff1681526020018281526020019350505050600060405180830381600087803b1580156121bd57600080fd5b505af11580156121d1573d6000803e3d6000fd5b505050506121e1816000806121e6565b505050565b8173ffffffffffffffffffffffffffffffffffffffff16837f8a372107ad4d875fad7b04cd28ca5b5b722f4f294bf4695df95bda7485972ae7836040518082815260200191505060405180910390a36000600660008581526020019081526020016000209050828160000160006101000a81548173ffffffffffffffffffffffffffffffffffffffff021916908373ffffffffffffffffffffffffffffffffffffffff16021790555081816001018190555050505050565b600033905090565b600073ffffffffffffffffffffffffffffffffffffffff168173ffffffffffffffffffffffffffffffffffffffff16141561232c576040517f08c379a000000000000000000000000000000000000000000000000000000000815260040180806020018281038252602681526020018061241b6026913960400191505060405180910390fd5b8073ffffffffffffffffffffffffffffffffffffffff166000809054906101000a900473ffffffffffffffffffffffffffffffffffffffff1673ffffffffffffffffffffffffffffffffffffffff167f8be0079c531659141344cd1fd0a4f28419497f9722a3daafe3b4186f6b6457e060405160405180910390a3806000806101000a81548173ffffffffffffffffffffffffffffffffffffffff021916908373ffffffffffffffffffffffffffffffffffffffff16021790555050565b6040518060400160405280600073ffffffffffffffffffffffffffffffffffffffff16815260200160008152509056fe4f776e61626c653a206e6577206f776e657220697320746865207a65726f2061646472657373a265627a7a723158203b760c4daa853aef9c6ae5646324c8fddbc190f3495745cd90c1e3cf550221a864736f6c63430005100032",
  "source": "pragma solidity ^0.5.0;\n\nimport \"@openzeppelin/contracts/token/ERC721/IERC721.sol\";\n\nimport \"@openzeppelin/contracts/introspection/IERC1820Registry.sol\";\n\nimport \"@openzeppelin/contracts/token/ERC20/IERC20.sol\";\nimport \"@rsksmart/erc677/contracts/IERC677.sol\";\nimport \"@openzeppelin/contracts/token/ERC777/IERC777.sol\";\n\nimport \"@rsksmart/erc677/contracts/ERC677TransferReceiver.sol\";\nimport \"@openzeppelin/contracts/token/ERC777/IERC777Recipient.sol\";\n\nimport \"@openzeppelin/contracts/GSN/Context.sol\";\nimport \"@openzeppelin/contracts/ownership/Ownable.sol\";\nimport \"solidity-bytes-utils/contracts/BytesLib.sol\";\n\ncontract ERC721SimplePlacements is Context, ERC677TransferReceiver, IERC777Recipient, Ownable {\n    IERC1820Registry constant internal ERC1820_REGISTRY = IERC1820Registry(0x1820a4B7618BdE71Dce8cdc73aAB6C95905faD24);\n\n    IERC721 token;\n\n    using BytesLib for bytes;\n\n    struct Placement {\n        address paymentToken;\n        uint256 cost;\n    }\n\n    event PaymentTokenWhitelistChanged(address indexed paymentToken, bool isERC20, bool isERC677, bool isERC777);\n    event UpdatePlacement(uint256 indexed tokenId, address indexed paymentToken, uint256 cost);\n\n    mapping (address => bool) private _whitelistedERC20;\n    mapping (address => bool) private _whitelistedERC677;\n    mapping (address => bool) private _whitelistedERC777;\n\n    bool public isGasPaymentAllowed;\n\n    mapping (uint256 => Placement) private _placements;\n\n    modifier onlyWhitelistedPaymentTokens(address paymentToken) {\n        require(\n            paymentToken != address(0) ? (\n                _whitelistedERC20[paymentToken] ||\n                _whitelistedERC677[paymentToken] ||\n                _whitelistedERC777[paymentToken]\n            ) : isGasPaymentAllowed,\n            \"Payment token not allowed.\"\n        );\n        _;\n    }\n\n    constructor(IERC721 _token) public {\n        token = _token;\n        ERC1820_REGISTRY.setInterfaceImplementer(address(this), keccak256(\"ERC777Token\"), address(this));\n        ERC1820_REGISTRY.setInterfaceImplementer(address(this), keccak256(\"ERC20Token\"), address(this));\n        ERC1820_REGISTRY.setInterfaceImplementer(address(this), keccak256(\"ERC777TokensRecipient\"), address(this));\n    }\n\n    /////////////////////////\n    // Tokens whitelisting //\n    /////////////////////////\n\n    function setWhitelistedPaymentToken(address paymentToken, bool isERC20, bool isERC677, bool isERC777) public onlyOwner {\n        _whitelistedERC20[paymentToken] = isERC20;\n        _whitelistedERC677[paymentToken] = isERC677;\n        _whitelistedERC777[paymentToken] = isERC777;\n\n        emit PaymentTokenWhitelistChanged(paymentToken, isERC20, isERC677, isERC777);\n    }\n\n    function whitelistedPaymentToken(address paymentToken) public view returns (bool, bool, bool) {\n        return (\n            _whitelistedERC20[paymentToken],\n            _whitelistedERC677[paymentToken],\n            _whitelistedERC777[paymentToken]\n        );\n    }\n\n    function allowGasPayments(bool allowance) public onlyOwner {\n        isGasPaymentAllowed = allowance;\n    }\n\n    /////////////\n    // Placing //\n    /////////////\n\n    function place(uint256 tokenId, address paymentToken, uint256 cost) external onlyWhitelistedPaymentTokens(paymentToken) {\n        require(token.getApproved(tokenId) == address(this), \"Not approved to transfer.\");\n\n        address tokenOwner = token.ownerOf(tokenId);\n        require(\n            tokenOwner == _msgSender() || token.isApprovedForAll(tokenOwner, _msgSender()),\n            \"Not approved or owner.\"\n        );\n\n        _setPlacement(tokenId, paymentToken, cost);\n    }\n\n    function placement(uint256 tokenId) external view returns(address, uint256) {\n        Placement memory _placement = _getPlacement(tokenId);\n        return (_placement.paymentToken, _placement.cost);\n    }\n\n    function unplace(uint256 tokenId) external {\n        require(!(token.getApproved(tokenId) == address(this)), \"Approved to transfer.\");\n\n        _setPlacement(tokenId, address(0), 0);\n    }\n\n    ////////////\n    // Buying //\n    ////////////\n\n    // With ERC-20 or gas\n    function buy(uint256 tokenId) external payable {\n        Placement memory _placement = _getPlacement(tokenId);\n\n        address payable owner = address(uint160(token.ownerOf(tokenId)));\n\n        if(_placement.paymentToken == address(0)) {\n            require(isGasPaymentAllowed, \"Wrong purchase method.\");\n\n            require(msg.value >= _placement.cost, \"Transfer amount is not enough.\");\n\n            owner.transfer(_placement.cost);\n        } else {\n            require(_whitelistedERC20[_placement.paymentToken], \"Wrong purchase method.\");\n\n            require(\n                IERC20(_placement.paymentToken).transferFrom(_msgSender(), owner, _placement.cost),\n                \"Payment token transfer error.\"\n            );\n        }\n\n        _afterBuyTransfer(owner, _msgSender(), tokenId);\n    }\n\n    // With ERC-677\n    function tokenFallback(address from, uint256 /* amount */, bytes calldata data) external returns (bool) {\n        uint256 tokenId = data.toUint(0);\n\n        Placement memory _placement = _getPlacement(tokenId);\n\n        require(_whitelistedERC677[_placement.paymentToken], \"Wrong purchase method.\");\n        require(msg.sender == _placement.paymentToken, \"Only from payment token.\");\n\n        address owner = token.ownerOf(tokenId);\n\n        require(\n            IERC677(_placement.paymentToken).transfer(owner, _placement.cost),\n            \"Payment token transfer error.\"\n        );\n\n        _afterBuyTransfer(owner, from, tokenId);\n    }\n\n    // With ERC-777\n    function tokensReceived(\n        address /* operator */,\n        address from,\n        address /* to */,\n        uint256 /* amount */,\n        bytes calldata userData,\n        bytes calldata /* operatorData */\n    ) external {\n        uint256 tokenId = userData.toUint(0);\n\n        Placement memory _placement = _getPlacement(tokenId);\n\n        require(_whitelistedERC777[_placement.paymentToken], \"Wrong purchase method.\");\n        require(msg.sender == _placement.paymentToken, \"Only from payment token.\");\n\n        address owner = token.ownerOf(tokenId);\n\n        IERC777(_placement.paymentToken).send(owner, _placement.cost, bytes(''));\n\n        _afterBuyTransfer(owner, from, tokenId);\n    }\n\n    function _getPlacement(uint256 tokenId) private view returns(Placement memory _placement) {\n        _placement = _placements[tokenId];\n        require(_placement.cost > 0, \"Token not placed.\");\n    }\n\n    function _setPlacement(uint256 tokenId, address paymentToken, uint256 cost) private {\n        emit UpdatePlacement(tokenId, paymentToken, cost);\n        Placement storage _placement = _placements[tokenId];\n        _placement.paymentToken = paymentToken;\n        _placement.cost = cost;\n    }\n\n    function _afterBuyTransfer(address owner, address newOwner, uint256 tokenId) private {\n        token.transferFrom(owner, newOwner, tokenId);\n        _setPlacement(tokenId, address(0), 0);\n    }\n}\n",
  "sourcePath": "/Users/vojtechsimetka/RIF/RIF Marketplace/rif-marketplace-nfts/contracts/ERC721SimplePlacements.sol",
  "compiler": {
    "name": "solc",
    "version": "0.5.16+commit.9c3226ce.Emscripten.clang"
  },
  "schemaVersion": "3.0.23",
  "updatedAt": "2020-03-28T11:43:34.162Z",
  "devdoc": {
    "methods": {
      "isOwner()": {
        "details": "Returns true if the caller is the current owner."
      },
      "owner()": {
        "details": "Returns the address of the current owner."
      },
      "renounceOwnership()": {
        "details": "Leaves the contract without owner. It will not be possible to call `onlyOwner` functions anymore. Can only be called by the current owner.     * NOTE: Renouncing ownership will leave the contract without an owner, thereby removing any functionality that is only available to the owner."
      },
      "transferOwnership(address)": {
        "details": "Transfers ownership of the contract to a new account (`newOwner`). Can only be called by the current owner."
      }
    }
  },
  "userdoc": {
    "methods": {
      "buy(uint256)": {
        "notice": "/////////"
      },
      "place(uint256,address,uint256)": {
        "notice": "//////////"
      },
      "setWhitelistedPaymentToken(address,bool,bool,bool)": {
        "notice": "//////////////////////"
      }
    }
  }
}